:100000000C942A000C9447000C9447000C94470071
:100010000C9447000C9447000C9499030C944700EF
:100020000C9447000C9447000C9447000C94470034
:100030000C9447000C9447000C9447000C94470024
:100040000C9447000C9447000C9447000C94D10288
:100050000C94470011241FBECFE5D4E0DEBFCDBF16
:1000600010E0A0E6B0E0E0E5F3E102C005900D92FB
:10007000AE37B107D9F720E0AEE7B0E001C01D927E
:10008000AB39B207E1F70E94EB050C94A6090C947A
:100090000000E3E9F0E08BE0808381838AE08283E3
:1000A00083E0883038F4E82FF0E0ED56FF4F1082FF
:1000B0008F5FF7CF83E080939100109290008FEFD5
:1000C0008093610008954F925F926F927F928F921A
:1000D0009F92AF92BF92CF92DF92EF92FF92CF9317
:1000E000DF936B017C018FEF809361001092910090
:1000F00010929000A7019601C701B6010E9437092E
:10010000882319F00E94490069C120E030E0A9016C
:10011000C701B6010E94420788233CF481E0809326
:100120009000F7FAF094F7F8F09446015701E8943C
:10013000B7F82FEF3FEF4FE75FE7C501B4010E942B
:100140003709811119C02FEF3FEF4FE75FE7C50176
:10015000B4010E94420718167CF40E94490080E016
:1001600090E0A0ECBFE78093830090938400A0937D
:100170008500B093860032C12FE736E948E15BE4A1
:10018000C701B6010E94A10818167CF40E9449001C
:1001900080E090E0A0ECBFE7809383009093840020
:1001A000A0938500B093860019C1C701B6010E94D3
:1001B000B9074B015C01611571058105910591F04D
:1001C0009B01AC01C0E012161306140615065CF480
:1001D000CF5FCA01B9012AE030E040E050E00E9460
:1001E0008709F1CFC1E0C83078F00E94490080E073
:1001F00090E0A0ECBFE78093830090938400A093ED
:100200008500B0938600EAC0D7E0DC1BC501B401CD
:100210000E94F1079B01AC01C701B6010E94D506FF
:100220006B017C01DD2309F451C025E93FEB46ED6C
:1002300053E30E94A10818160CF04CC0C0E00F2E2A
:10024000412C512CF0E86F2EFFE37F2EF02DCD17BF
:1002500060F420E030E040E251E4C301B2010E94CA
:10026000A6082B013C01CF5FF2CFA7019601C30185
:10027000B2010E94A6080E9413090E94C0076B01E8
:100280007C01C301B2010E94C007C616D706E8066A
:10029000F90638F18FEF881A980AA80AB80A80E898
:1002A000881686E9980688E9A806B104BCF00E9481
:1002B000490080E090E0A0ECBFE78093830090933A
:1002C0008400A0938500B093860088C0C12CD12CF7
:1002D000760107C0C12CD12C760103C0C12CD12CD2
:1002E0007601109291008FEF80936100C114D104C8
:1002F000E104F104B9F0C701B6012AE030E040E0C2
:1003000050E00E946509672B682B692B59F4C701DF
:10031000B6012AE030E040E050E00E946509690142
:100320007A01E4CFC114D104E104F10409F1C1144C
:10033000D104E104F104F1F0809191008730E0F400
:10034000C0919100D0E0C701B6012AE030E040E062
:1003500050E00E946509CD56DF4F6883C22ED32E30
:10036000E42EF52E809191008F5F80939100DFCF76
:1003700080E003C081E001C081E0882321F080910A
:10038000910080936100809191008730E0F4C091EA
:100390009100D0E0C501B4012AE030E040E050E037
:1003A0000E948709CD56DF4F6883822E932EA42E9C
:1003B000B52E809191008F5F8093910018141904DD
:1003C0001A041B0404F380919100883038F4E82F5C
:1003D000F0E0ED56FF4F10828F5FF7CFDF91CF91A6
:1003E000FF90EF90DF90CF90BF90AF909F908F9055
:1003F0007F906F905F904F90089510928E001092B2
:100400008D00109291001092880010928C00109232
:100410008B0010928A001092890080E0883038F4B6
:10042000E82FF0E0ED56FF4F10828F5FF7CF85B3D6
:100430008E7F85BB109287000895109283001092E2
:100440008400109285001092860010927F00109216
:100450008000109281001092820010927E0081E054
:10046000809360001092900060E070E0CB010E94E9
:10047000630008958FEF87BB88BB81BB12BA8FE002
:100480008ABB80EF8BBB81E084BB15BA789408955A
:10049000CF93DF93CDB7DEB760970FB6F894DEBF8A
:1004A0000FBECDBF80E1EEE6F0E0DE0111960190D7
:1004B0000D928A95E1F760E0643008F056C08BB386
:1004C0008F608BBB2BB3462F50E081E090E0062E6F
:1004D00002C0880F991F0A94E2F7809582238BBB94
:1004E0008DE08A95F1F7000089B382958F708F3087
:1004F000D1F18FE19EE40197F1F700C0000099B3BC
:1005000092959F7080E0843070F5E82FF0E0292FFD
:1005100030E0082E02C0359527950A94E2F720FDB9
:1005200020C089B390E09595879595958795959589
:100530008795959587950E2E02C0959587950A9477
:10054000E2F780FFEECF440F551F440F551F81E0A7
:1005500090E08C0F9D1F480F591FE40FF51F8081FD
:1005600005C08F5FD0CF6F5FA7CF8FEF60960FB6BC
:10057000F894DEBF0FBECDBFDF91CF9108958BE021
:1005800083BF8CE78CBF89B7826089BF08958BE0F9
:100590008EBD81EE94E09BBD8ABD89B7806189BF25
:1005A00008951F920F920FB60F9211242F933F932D
:1005B0004F938F939F93EF93FF9312BA80918F0085
:1005C00081114BC08091910081110EC080919200E9
:1005D000811106C08091620088BB80E882BB92C016
:1005E0008FEF88BB12BA8EC09091920080919100DB
:1005F000981778F5E0919200F0E0ED56FF4FE0811A
:10060000F0E0EE59FF4F808190919200923051F0CE
:1006100090919200943041F090919200963031F494
:1006200091E005C091E003C091E001C090E091111C
:100630008F7788BB8091920027E030E0281B31093A
:1006400081E090E002C0880F991F2A95E2F782BBF3
:1006500059C08FEF88BB12BA55C09091920080911B
:100660009100981730F5E0919200F0E0ED56FF4FC1
:10067000E081F0E0EE59FF4F40812091920030E0A0
:1006800080916100082E000C990B2817390709F496
:100690004F7748BB8091920027E030E0281B31095A
:1006A00081E090E002C0880F991F2A95E2F782BB93
:1006B00029C080919000882361F020919200909150
:1006C0009100291308C090919100983028F080E0A3
:1006D00003C080E001C080E0882389F08FEB88BBF5
:1006E0008091920027E030E0281B310981E090E002
:1006F00002C0880F991F2A95E2F782BB03C08FEFD3
:1007000088BB12BA809192008F5F80939200809193
:100710009200883010F010929200FF91EF919F911B
:100720008F914F913F912F910F900FBE0F901F907F
:1007300018951F920F920FB60F9211248F939F93CB
:10074000EF93FF9380918F0081110AC080918E00FA
:10075000882341F080918D00882331F080E005C02E
:1007600080E003C080E001C081E0882309F497C0E5
:1007700090918C0091110EC090918B0091110CC042
:1007800090918A0091110AC090918900992339F0C3
:1007900080E005C080E003C080E001C080E08823E5
:1007A000D1F095B381E0892785BB10928E0010921D
:1007B000930081E0883038F4E82FF0E0ED56FF4FE9
:1007C00010828F5FF7CF81E08093910010928800B4
:1007D0008093870064C080918900882331F08091E4
:1007E000890081508093890026C083E68093890028
:1007F00080918A00882331F080918A008150809313
:100800008A0019C08BE380938A0080918B00882333
:1008100031F080918B00815080938B000CC08BE372
:1008200080938B0080918C00882329F080918C002C
:10083000815080938C008091890090E08A3018F07C
:100840008A509F5FFBCFE3E9F0E080839183809142
:100850008A0090E08A3018F08A509F5FFBCFE3E96E
:10086000F0E08283938380918B0090E08A3018F0CF
:100870008A509F5FFBCFE3E9F0E08483958380910A
:100880008C0090E08A3018F08A509F5FFBCFE3E93C
:10089000F0E0868397838091880080939100FF9198
:1008A000EF919F918F910F900FBE0F901F90189511
:1008B0008F929F92AF92BF92CF92DF92EF92FF9270
:1008C000CF93C0908300D0908400E0908500F0909A
:1008D0008600A7019601C701B6010E943709882347
:1008E00021F081E080936000BCC080917E00811186
:1008F00011C080917F0090918000A0918100B09103
:1009000082008093830090938400A0938500B0932D
:1009100086008AC080907F0090908000A090810027
:10092000B09082008B30E1F018F48A3019F135C0B4
:100930008C3061F08D3089F5A5019401C701B601B5
:100940000E94D6066B017C01C0E030C0A501940175
:10095000C701B6010E94D5066B017C01C0E026C02C
:10096000A5019401C701B6010E94A6086B017C0194
:10097000C0E01CC020E030E0A901C501B4010E9424
:100980004207882379F0A5019401C701B6010E94AE
:1009900047076B017C01C0E009C0C0E0C12CD12C2D
:1009A000760104C0C1E0C12CD12C7601460157016B
:1009B000E894B7F82FEF3FEF4FE75FE7C501B401C9
:1009C0000E94370981110AC02FEF3FEF4FE75FE721
:1009D000C501B4010E944207181654F0A701960100
:1009E000C701B6010E943709882321F081E003C0C6
:1009F00081E001C080E08111C1E0CC2369F080E09A
:100A000090E0A0ECBFE78093830090938400A093D4
:100A10008500B093860008C0C0928300D092840005
:100A2000E0928500F09286006091830070918400CE
:100A300080918500909186000E94630080918300E0
:100A400090918400A0918500B091860080937F00F2
:100A500090938000A0938100B093820081E0809306
:100A60006000CF91FF90EF90DF90CF90BF90AF905C
:100A70009F908F900895CF92DF92EF92FF92CF9345
:100A8000C82F8A3008F071C0609183007091840093
:100A900080918500909186009B01AC010E943709EE
:100AA00081110E941D0280916000882351F01092F4
:100AB0007F001092800010928100109282001092AC
:100AC0006000C0907F00D0908000E0908100F090A6
:100AD000820020E030E0A901C701B6010E94420770
:100AE000811110C06C2FCC0F770B880B990B0E94D3
:100AF000F10760937F007093800080938100909352
:100B0000820028C020E034E244E759E4C701B6017E
:100B10000E94A10888230CF058C020E030E040E299
:100B200051E4C701B6010E94A6086B017C016C2F3D
:100B3000CC0F770B880B990B0E94F107A701960148
:100B40000E94D60660937F0070938000809381009E
:100B50009093820060917F0070918000809181006D
:100B6000909182000E94630030C086EF8C0F843029
:100B7000D0F480916000811102C00E9458046091FD
:100B800083007091840080918500909186009B0184
:100B9000AC010E943709811102C0C0937E0081E040
:100BA0008093600012C0CD3F61F48091600081119C
:100BB00002C00E94580410927E0081E08093600081
:100BC00004C0CE3F11F40E941D02CF91FF90EF9020
:100BD000DF90CF9008950E943A020E94BF020E94C7
:100BE000C7020E94FD010E944802C82F9A9B13C0B1
:100BF00080918F00813011F181E080938F000E94FD
:100C00001D022FEF81EE94E0215080409040E1F7EB
:100C100000C0000013C0999B11C080918F008823F1
:100C200069F010928F000E94FD012FEF81EE94E099
:100C3000215080409040E1F700C00000CF3F09F410
:100C4000ADC080918F008111A6C0CA3030F4809170
:100C50008E00882321F080E003C080E001C081E0A5
:100C6000882379F180918700882371F080E08830B3
:100C700038F4E82FF0E0ED56FF4F10828F5FF7CF8A
:100C8000109291001092870080919100883008F0B6
:100C900085C020919100222361F0822F90E0FC0119
:100CA000EE56FF4F3081FC01ED56FF4F308321504F
:100CB000F2CFC0939300809191008F5F8093910059
:100CC0006DC0CE3F19F40E94FD0168C0CD3F09F010
:100CD00065C090918E00911104C090919100911186
:100CE00081E0882309F44BC0E3E9F0E09081818141
:100CF000880F282F220F220F820F890F80938900DF
:100D000092818381880F282F220F220F820F890F53
:100D100080938A0094818581880F282F220F220FCB
:100D2000820F890F80938B0096818781880F282FEF
:100D3000220F220F820F890F80938C0080918B00ED
:100D40008C3318F08BE380938B0080918A008C3376
:100D500018F08BE380938A0080918900843618F024
:100D600083E680938900809191008093880081E0E0
:100D700080938E0010928D00109287000FC080919A
:100D80008E00882359F090918D0081E0911180E0D0
:100D900080938D0003C08C2F0E943B058FE19EE461
:100DA0000197F1F700C000001ECF5058BB27AA27BB
:100DB0000E94ED060C9467080E94590838F00E94C2
:100DC000600820F039F49F3F19F426F40C9456087B
:100DD0000EF4E095E7FB0C945008E92F0E94780888
:100DE00058F3BA17620773078407950720F079F460
:100DF000A6F50C949A080EF4E0950B2EBA2FA02DB0
:100E00000B01B90190010C01CA01A0011124FF27B7
:100E1000591B99F0593F50F4503E68F11A16F040B2
:100E2000A22F232F342F4427585FF3CF46953795B1
:100E30002795A795F0405395C9F77EF41F16BA0B76
:100E4000620B730B840BBAF09150A1F0FF0FBB1F24
:100E5000661F771F881FC2F70EC0BA0F621F731F6D
:100E6000841F48F4879577956795B795F7959E3FCA
:100E700008F0B0CF9395880F08F09927EE0F97955B
:100E8000879508950E942C0808F481E008950E9437
:100E90005B070C9467080E94600858F00E9459088C
:100EA00040F029F45F3F29F00C94500851110C9444
:100EB0009B080C9456080E94780868F39923B1F3B4
:100EC000552391F3951B550BBB27AA276217730770
:100ED000840738F09F5F5F4F220F331F441FAA1F04
:100EE000A9F335D00E2E3AF0E0E832D091505040C0
:100EF000E695001CCAF72BD0FE2F29D0660F771F6E
:100F0000881FBB1F261737074807AB07B0E809F053
:100F1000BB0B802DBF01FF2793585F4F3AF09E3FD8
:100F2000510578F00C9450080C949B085F3FE4F353
:100F3000983ED4F3869577956795B795F7959F5F1B
:100F4000C9F7880F911D9695879597F90895E1E067
:100F5000660F771F881FBB1F621773078407BA07C6
:100F600020F0621B730B840BBA0BEE1F88F7E09521
:100F700008950E94C0076894B1110C949B080895CD
:100F80000E94800888F09F5798F0B92F9927B75191
:100F9000B0F0E1F0660F771F881F991F1AF0BA951D
:100FA000C9F714C0B13091F00E949A08B1E00895D9
:100FB0000C949A08672F782F8827B85F39F0B93FCB
:100FC000CCF3869577956795B395D9F73EF49095D0
:100FD0008095709561957F4F8F4F9F4F0895E8944E
:100FE00009C097FB3EF490958095709561957F4F71
:100FF0008F4F9F4F9923A9F0F92F96E9BB2793951F
:10100000F695879577956795B795F111F8CFFAF42E
:10101000BB0F11F460FF1BC06F5F7F4F8F4F9F4F5F
:1010200016C0882311F096E911C0772321F09EE8BD
:10103000872F762F05C0662371F096E8862F70E023
:1010400060E02AF09A95660F771F881FDAF7880FFD
:101050009695879597F90895990F0008550FAA0B53
:10106000E0E8FEEF16161706E807F907C0F01216BB
:101070001306E407F50798F0621B730B840B950BBE
:1010800039F40A2661F0232B242B252B21F4089513
:101090000A2609F4A140A6958FEF811D811D0895B0
:1010A00097F99F6780E870E060E008959FEF80EC1B
:1010B000089500240A9416161706180609060895BE
:1010C00000240A9412161306140605060895092E24
:1010D0000394000C11F4882352F0BB0F40F4BF2B93
:1010E00011F460FF04C06F5F7F4F8F4F9F4F0895D3
:1010F00057FD9058440F551F59F05F3F71F04795C9
:10110000880F97FB991F61F09F3F79F087950895AD
:10111000121613061406551FF2CF4695F1DF08C0CC
:10112000161617061806991FF1CF869571056105E9
:1011300008940895E894BB2766277727CB0197F991
:1011400008950E942C0808F48FEF08950E94B908B2
:101150000C9467080E94590838F00E94600820F03B
:10116000952311F00C9450080C94560811240C94FB
:101170009B080E94780870F3959FC1F3950F50E08B
:10118000551F629FF001729FBB27F00DB11D639F39
:10119000AA27F00DB11DAA1F649F6627B00DA11DDF
:1011A000661F829F2227B00DA11D621F739FB00D85
:1011B000A11D621F839FA00D611D221F749F3327F5
:1011C000A00D611D231F849F600D211D822F762F8E
:1011D0006A2F11249F5750409AF0F1F088234AF06B
:1011E000EE0FFF1FBB1F661F771F881F91505040D7
:1011F000A9F79E3F510580F00C9450080C949B0871
:101200005F3FE4F3983ED4F3869577956795B7955D
:10121000F795E7959F5FC1F7FE2B880F911D969577
:10122000879597F908950E948008E8F09E37E8F0C6
:101230009639B8F49E3848F4672F782F8827985F3E
:10124000F9CF86957795679593959539D0F3B62F15
:10125000B1706B0F711D811D20F48795779567958F
:1012600093950C943C090C9457090C949B080E948C
:101270002C08880B990B0895882371F4772321F0AB
:101280009850872B762F07C0662311F499270DC03D
:101290009051862B70E060E02AF09A95660F771FD8
:1012A000881FDAF7880F9695879597F908959F3FDD
:1012B00031F0915020F4879577956795B795880F11
:1012C000911D9695879597F90895A1E21A2EAA1B6C
:1012D000BB1BFD010DC0AA1FBB1FEE1FFF1FA217E6
:1012E000B307E407F50720F0A21BB30BE40BF50BE3
:1012F000661F771F881F991F1A9469F7609570956C
:10130000809590959B01AC01BD01CF010895052EFC
:1013100097FB1EF400940E949E0957FD07D00E947F
:10132000650907FC03D04EF40C949E095095409536
:10133000309521953F4F4F4F5F4F08959095809581
:10134000709561957F4F8F4F9F4F0895F894FFCF11
:1013500001FFC0F9A4B0999282F8809086AF070887
:0E136000090A0405060B0102030CFE00FD0D38
:00000001FF
